S01100004C434420696E7465722E73726563FE
S11300000C942A000C943F000C943F000C943F0085
S11300100C943F000C943F000C943F000C943F0060
S11300200C943F000C943F000C943F000C943F0050
S11300300C943F000C943F000C943F000C943F0040
S11300400C943F000C943F000C943F000C943F0030
S11300500C943F0011241FBECFE5D8E0DEBFCDBF16
S113006010E0A0E6B0E0E6E0F2E002C005900D92F8
S1130070A437B107D9F70E94DA000C9401010C945B
S1130080000085BB8BB38E7F8BBB8BB38D7F8BBB0B
S11300908BB384608BBB89EF90E00197F1F700C0CC
S11300A000008BB38B7F8BBB89EF90E00197F1F756
S11300B000C00000089585BB8BB381608BBB8BB3FC
S11300C08D7F8BBB8BB384608BBB89EF90E00197F2
S11300D0F1F700C000008BB38B7F8BBB89EF90E0FE
S11300E00197F1F700C0000008958FEF84BB8AB335
S11300F087608ABB87E893E10197F1F700C00000AD
S113010088E30E9441008EE00E94410081E00E9449
S1130110410083EF91E00197F1F700C000000895DA
S11301200F931F93CF93DF938C01C0E0D0E009C0FD
S11301300E945B0087EA91E60197F1F700C0000096
S11301402196F801EC0FFD1F80818111F1CFDF9121
S1130150CF911F910F9108950F931F93CF93DF9326
S11301608B01877090E0880F991F880F991F880F63
S1130170991F80640E94410087EA91E60197F1F794
S113018000C00000C0E0D0E00DC0F801EC0FFD1F7E
S113019080810E945B0087EA91E60197F1F700C035
S11301A000002196C830D10584F3DF91CF911F91CF
S11301B00F9108950E94750060E670E080E00E944F
S11301C0AC0083EC99E00197F1F700C0000081E0F6
S11301D00E94410083EC99E00197F1F700C0000010
S11301E080EC0E94410087E893E10197F1F700C099
S11301F0000088E690E00E94900080E00E945B008E
S1090200FFCFF894FFCFCC
S113020615001515151F00004C6F6164696E672E85
S10702162E2E000084
S9030000FC
